:06000000020030020814AA
:03001B0002084395
:0300230002097B54
:03002B00020920A7
:0E003000C2B7C2B5C24FC25075300075320063
:0F003E00753400753600753800753A00753C0052
:0F004D00753E00754000756300C295C2A0C2A148
:10005C00D2B6C255C24EC24CD259D251D252D25340
:0E006C00755600755700C2547527967525FA13
:0F007A007526FA752B00752C00C24BC24DD2A40F
:0F008900756C01756E0075985075C80075CBF0D9
:1000980075CA56D2CA758929758DFFD28E758C009E
:0F00A800758A00D2BCD2BD75A8B8758190C258B8
:0F00B70075602875615AC2577900780075460048
:0F00C60075470075480075490075500075510069
:0E00D500755200755600755700800C75460078
:0F00E3007547007548007549001203AB20575A46
:1000F20020B402800520B3F880E40880097550001E
:0E01020075510075520012049820B402800559
:0E01100020B3F880EA082055158006755600C9
:10011E0075570012055520B402800520B3F880ED06
:10012E0015461547154815491550155115561557AD
:10013E00155212065220550312075C1206E0D257D2
:0E014E00D288D28CD2A8C24FC250C255D24C19
:10015C0020B607D255C2570200B5204D2B30582877
:0F016C00C2AF1202CB74CC1202EF74441202EF36
:10017B001202CB74CC1202EF74BE1202EF120326E2
:0E018B0012061AD2AFD28FD2CF80C6304E0BE2
:0E01990012069912071E120780D257C24E227C
:1001A700304D06C259D2B58007205904C2B5D2597D
:1001B70022204D02800022C0E020B40C052C74FAE6
:1001C700B52C03752C028003752C007401B52C0225
:0F01D700B24DD0E022204F04C2B78002D2B7222F
:0F01E600205004C2B58002D2B52220A104C24A23
:0F01F500800CD24A2220A004C2498002D24922A3
:0F02040020A204C2488002D24822C0E020A30CEE
:0F021300052B74FAB52B03752B028003752B0096
:0F0222007401B52B04B24BB2A4D0E022205411CA
:0F023100D5270E752796D525087525FAD52602EF
:10024000D25422D29512026CC29522D29512025338
:0F025000C29522755D14755CFA755BFA755AFAE2
:10025F00D55DFDD55CFDD55BFDD55AFD22755BFAED
:0F026F00755AFAD55BFDD55AFD22C0E0C0F0EFFD
:0F027E00B559028004400D801CEEB55802801661
:10028D0040028012EFB55406EEB55306800C400ABD
:10029D00800A40068006C2A08002D2A0D0F0D0E035
:0F02AD0022C296D2967D05DDFEC29622755FFABB
:0F02BC0051C2D55FFB2279FA7AFADAFED9FE2217
:1002CB007404C2B375F0A0D5F0FDD2B375F006C3BC
:1002DB0020B308D5F0FAD5E0F7800875F065A0B328
:1002EB00D5F0FB22C0F075F008131202FED5F0F921
:1002FB00D0F022C2B3755E0212032292B3755E1464
:0F030B00120322D2B3755E1412032222755FFA19
:0F031A0051C251C2D55FF922D55EFD22120343B5
:10032900F542120343F54C12036712039220510759
:0E033900205204D2A18002C2A12278087400D2
:0F03470012034E13D8FA22C0E0C2B30000D2B3A3
:10035600755E02120322A2B3755E14120322D0E068
:10036600229256E54CB54B06C251D253801B40151E
:0F037600B40F08C251C252C253800E5008C25178
:0F038500C252C2538004D251D253A25622925672
:10039400305311E542B54A04C25280084004C252A7
:1003A4008002D252A25622C0E075908074007F0071
:0F03B4007400205702800302044C2097F5C2B357
:0F03C300A946B90B0675460112060D0546A94657
:1003D200B90B0375460112060D3097E5D2B37400CE
:1003E2002097FDC2B3A947B90B0675470112060D46
:1003F2000547A947B90B0375470112060D3097E56A
:0E040200D2B374002097FDC2B3A948B90B060F
:1004100075480112060D0548A948B90B0375480136
:0F04200012060D3097E5D2B374002097FDC2B3DA
:0F042F00A949B90B0675490112060D0549A949DE
:10043E00B90B0375490112060D3097E5D2B3D0E022
:10044E0022C290C291C292C293C0E0E54604D290FD
:0F045E001205F3F5801205EAC290E54704D2912A
:0F046D00120600F5801205EAC291E54804D2920A
:0F047C001205F3F5801205EAC292E54904D29306
:0F048B001205F3F5801205EAC293D0E022C0E01B
:10049A0075908074007F0074002097FDC2B3A95242
:1004AA00B90B0675520112060D0552A952B90B0372
:1004BA0075520112060D3097E5D2B374002097FDEC
:0F04CA00C2B3A950B90B0675500112060D0550AB
:1004D900A950B90B0375500112060D3097E5D2B337
:0F04E90074002097FDC2B3A951B90B06755101DC
:1004F80012060D0551A951B90B0375510112060DCC
:100508003097E5D2B3D0E022C290C291C292C29392
:10051800C0E07454D290F5801205EAC290E5520406
:0F052800D2911205F3F5801205EAC291E5500455
:0F053700D292120600F5801205EAC292E5510435
:0F054600D2931205F3F5801205EAC293D0E0229A
:10055500C0E075908074007F0074002097FDC2B3E1
:0F056500A956B90B0675560112060D0556A95673
:10057400B90B0375560112060D3097E5D2B374001A
:100584002097FDC2B3A957B90B0675570112060D82
:100594000557A957B90B0375570112060D3097E596
:0F05A400D2B3D0E022C290C291C292C293C0E003
:0F05B300E55604D2901205F3F5801205EAC290C6
:0F05C200E55704D2911205F3F5801205EAC291B4
:0F05D1007437D292F5801205EAC292745ED2930B
:1005E000F5801205EAC293D0E0227B027AFADAFEA5
:1005F000DBFA228322403F065B4F666D7D077F6FEB
:0F0600008322C0BF86DBCFE6EDFD87FFEF7C02D4
:10060F007D027E0FDEFEDDFADCF622C0E0E54CC493
:0F061F00F543C04253420F85424CD0425342F044
:10062E00E542C4254375F00A8485F04375F00A84CB
:0F063E0085F044F545E54C75F00AA475F010847D
:0E064D00F542D0E022C0E0C0F0854623E5462D
:10065B0075F010A475F00A84F546E54875F00AA408
:10066B00F548E54975F064A4F5497400E54725485C
:10067B002549F52275F01084ACF075F01084ADF0BF
:10068B00ECC42546FC8D4B8C4AD0F0D0E022C0E068
:0F069B00C0F0853023E53075F010A475F00A84A7
:1006AA00F530E53475F00AA4F534E53675F064A43E
:1006BA00F5367400E53225342536F52275F01084B6
:0F06CA00ACF075F01084ADF0ECC42530FC8D4B16
:1006D9008C4AD0F0D0E022C0E0C0F0E55175F00AB4
:0F06E900A42550F520855221F5511551E555C333
:0E06F80005519551F5517409955275F026A4DF
:1007060075F00A84F55275F026E551A42552F55385
:0E07160085F054D0F0D0E022C0E0C0F0E53C09
:0F07240075F00AA4253AF520853821F53C153CDF
:10073300E555C3053C953CF53C7409953875F026A1
:0F074300A475F00A84F53875F026E53CA4253836
:10075200F55385F054D0F0D0E022C0E0C0F0E55768
:1007620075F00AA42556F555855524C3E55594021E
:1007720075F026A4F55885F059D0F0D0E022C0E0FB
:10078200C0F0E54075F00AA4253EF555855524C311
:0F079200E555940275F026A4F55885F059D0F07E
:0F07A100D0E022C0E0C0F09256EEF8EFF97A26D1
:1007B0007B00C37C007D0075F00005F0EA33FAEBA6
:1007C00033FB50F6EB13FBEA13FAC389078806E8FC
:1007D0009AF8E99BF95004A907A806B3EC33FCED9D
:0E07E00033FDD5F0DFAB05AA048A4E884DE844
:1007EE0075F00484F54DC3E555954EF54EC3740969
:0F07FE00954DF54DE54E75F00A84F54F85F04E9B
:10080D00A256D0F0D0E022C0E0C0F0C28C204D192D
:10081D00AF8CAE8A1202791207A4854E50854F51C6
:0F082D00854D52055005510552758C00758A0096
:10083C00D0F0D0E0D28C3212020E12022E1201FA3B
:10084C001201F0120196C0E0C0F0205726B8000546
:10085C0012044F800BB8010512051080031205A974
:10086C00205505120243800312024B3057028003BD
:0F087C000209141201DC1201E6120204D5600613
:10088B007560281202AED5610775615AD258800285
:10089B00C25830A20512024B8026C0E0EC30A014E7
:0F08AB008C62AC63BC000A30A10A7C01120243CC
:0F08BA00800820A0F87C0012024B8C63AC62FC1B
:0E08C900D0E0305814854246854347854448A8
:0E08D700854549054605470548054930A51CDD
:0F08E50030A62520A00BD2978002C297120510D3
:0F08F400801E3097F820A1F312044F8013D2A674
:0E090300C2A512051030A6028007C2A6D2A51A
:0F09110012044F20A704D2A5D2A6D0F0D0E03216
:10092000C0D0C003C2CAC2CFAB6CBB0108756C0299
:0F093000D003D0D032BB0314756C04C2CAC2CF3F
:10093F0075CB3C75CA06D2CAD003D0D032BB0427C0
:10094F00C0E0C0F0C000C001C002C004C005C006B6
:0F095F00C007120A26D007D006D005D004D00258
:0F096E00D001D000D0F0D0E0D003D0D032C0D034
:0F097D00C0E0C0F0C000C003AB6C209830E56E46
:0F098C00B56B13756C02756E00D003D000D0F000
:10099B00D0E0D0D0C299327870E8256BF8E6F599A3
:0F09AB00056BD003D000D0F0D0E0D0D0C299328D
:0F09BA00C298BB0117C2CAC2CF75CBF075CA561F
:1009C900D2CAD003D000D0F0D0E0D0D032BB022BB5
:0F09D900756E00C2CAC2CF75CBF975CA49D2CAB2
:0F09E800756C03E599F5F07470256EF8E5F0F67F
:1009F700056ED003D000D0F0D0E0D0D032BB0302D8
:0F0A070080D3BB040FC2CAC2CF75CBF075CA56DD
:100A1600D2CA756C01D003D000D0F0D0E0D0D0326D
:100A2600E56EFF1F1F120BC074702FF8E6B50D0E92
:0E0A360008E6B50E097870E6B40103020A471F
:100A4400020B7B7871E6B4012E08E66003020B8E7C
:0F0A540008E6FEC394804003020B8E08E66003A1
:100A6300020B7C08E6FD142EC394804003020B7C2A
:0E0A73007C02120C42020BA0B40203020A4DD8
:100A8100B4032F08E66003020B8E08E6FEC3944010
:100A91004003020B8E08E66003020B7C08E6FD149E
:0F0AA1002EC394404003020B7C756E02120C8131
:0E0AB000020BA0B40403020A84B4052E08E66B
:0F0ABE00B4002308E6FEC39480501B08E6600DC9
:0F0ACD00B4FF1708E67013120BF2020BBA08E61B
:0E0ADC007009120C0B020BBA020B8E020B7C7F
:100AEA00B4061708E6B4000F08E6FEC394405007A0
:0F0AFA0008120C25020BBA020B8EB40F3008E65F
:100B09006003020B8E08E6FEC394804003020B8E3D
:0F0B190008E66003020B7C08E6FD142EC39480EF
:0F0B28004003020B7C7C06120CDF7C06020BA044
:100B3700B4102F08E66003020B8E08E6FEC394404C
:100B47004003020B8E08E66003020B7C08E6FD14E7
:0F0B57002EC394404003020B7C756E06120CA453
:100B6600020BA074702401F8E6D2E7F6087401F6C9
:100B76007C03020BA02274702401F8E6D2E7F60883
:100B86007403F67C03020BA074702401F8E6D2E726
:100B9600F6087402F67C03020BA0F5F07470256E5D
:100BA600F8E5F0856E07120BC0E50DF608E50EF6C2
:100BB600056E056E756B00D29922750DFF750EFFD9
:0F0BC60078708FF0E6650DF50D7E08E50EC31310
:0F0BD500F50EE50D13F50D500CE50D6401F50D52
:0F0BE400E50E64A0F50EDEE508DFDBAFF022EED4
:100BF300540704F97400D333D9FDF9EE54F8030311
:100C0300032420F8E649F622EE540704F97400D3CE
:100C130033D9FDF4F9EE54F80303032420F8E6591D
:0F0C2300F622EE23242004F9E6F71908E6F7225B
:100C3200783F7472F608EEF6087422F6C302003F9B
:100C4200ED1454F803030304C0E074702CF8D0E0F0
:100C5200F6756E030CEE75F008842420A8E0E60316
:0F0C6200D5F0FC8DF0C0E0E4D333D5F0FBF5F016
:100C7100D0E055F0F5F074702CF8E5F0F6056E2231
:100C8100ED23F5F07470256EF8E5F0F608056EEECB
:100C91002420F97400F608056EE7F608056E0501D3
:100CA100DDF1227470256EF808EE2420F90501E6C5
:100CB100F7081501E6F70805010501DDF022400FEF
:0F0CC100783F74C2F608EEF8087422F602003F7E
:100CD000783F74D2F608EEF6087422F602003FED73
:100CE000940950067400C0E0800504C0E07D080C43
:0F0CF00074702CF8E6FFEF13FF120CBF0EDDF748
:090CFF00D0E070DDE520F5902243
:00000001FF
